:020000040000FA
:10000000800300104902000051020000530200006A
:1000100055020000570200005902000000000000D5
:100020000000000000000000000000005B02000073
:100030005D020000000000005F020000610200009D
:1000400063020000871000006302000063020000EA
:10005000630200006302000063020000630200000C
:1000600063020000630200006302000063020000FC
:1000700063020000630200006302000063020000EC
:1000800063020000630200006302000063020000DC
:1000900063020000630200006302000063020000CC
:1000A000250D0000630200006302000063020000EF
:1000B00063020000630200006302000063020000AC
:1000C00063020000630200006302000000F002F817
:1000D00000F03AF80AA090E8000C82448344AAF1A8
:1000E0000107DA4501D100F02FF8AFF2090EBAE8A6
:1000F0000F0013F0010F18BFFB1A43F0010318475C
:10010000FC1C00002C1D0000103A24BF78C878C1E8
:10011000FAD8520724BF30C830C144BF04680C600D
:10012000704700000023002400250026103A28BF55
:1001300078C1FBD8520728BF30C148BF0B60704759
:100140001FB51FBD10B510BD00F09FF81146FFF799
:10015000F7FF01F009F800F0BDF803B4FFF7F2FF74
:1001600003BC00F0C5F8000010B500F0C9F810BDE0
:100170007047704770471FB5044604F0080010B37D
:10018000032000F0A2FD2B4909682B4A12880223A4
:1001900003FB0211884217D0274800888030264987
:1001A000088008460088C0F30900088008460088D7
:1001B00022490988401AC0F30900B0F5007F0AD12E
:1001C00001201F49087006E000201D4908701A48E8
:1001D00000881A4908800A20F0B1164800681649BC
:1001E0000988022202FB010000900420ADF80400FF
:1001F0000020ADF80600134800680290002003902C
:10020000039820F00200801C03906946032000F050
:10021000A4FC032000F01DFD1FBD70477047704710
:100220007047704770477047704770477047704716
:10023000704700004000001046000010440000100D
:10024000480000103C00001009488047094800475A
:10025000FEE7FEE7FEE7FEE7FEE7FEE7FEE7FEE776
:10026000FEE7FEE704480549034A054B70470000D6
:10027000FD130000CD00000080010010800300107D
:1002800080010010704770477047754600F02CF8E9
:10029000AE4605006946534620F00700854618B073
:1002A00020B5FFF7DFFFBDE820404FF000064FF01C
:1002B00000074FF000084FF0000B21F00701AC469B
:1002C000ACE8C009ACE8C009ACE8C009ACE8C009BA
:1002D0008D46704710B50446AFF300802046BDE858
:1002E0001040FFF73ABF0000004870471C010010A3
:1002F00001491820ABBEFEE726000200FFFFFFFF0A
:100300000020EB490880EB490870EB4908704FF07A
:100310000110EA4908600020E9490860E9490860DD
:10032000704710B5E849002000F09CFB10BD10B5E7
:10033000E6488088402801DD402401E0E3488488C5
:10034000E24822460168802000F0BDFB0446DF48F9
:1003500000682044DD49086008468088001B8880CA
:1003600010BD10B5D9480168002000F07BFB0446A1
:10037000D64800682044D549086008468088001B9C
:10038000888010BD10B500221146802000F09BFB34
:1003900010BD10B5CE49002000F064FB10BD10B5B3
:1003A0000446082C6FD2DFE804F06E04F2F16E6EA2
:1003B000F0EFFFF7B6FFC4490978C80900F009FB60
:1003C000C148C088C1498880BF480078C0F3411047
:1003D00010B1012879D190E0BB4840780C2875D243
:1003E000DFE800F0060D8815881D333A41555C8121
:1003F00001F020FA00B9E1E0FFF799FF7BE000206F
:1004000001F078FA00B9D9E0FFF7BCFF73E00120F2
:1004100001F070FA00B9D1E0FFF7B4FF6BE000BF64
:10042000A948007800F01F0030B9A748807840F054
:100430008000A049087001E0002001E000BF012019
:1004400000B9BBE0FFF79EFF55E001F097F900B956
:10045000B4E0FFF76CFF4EE0002000F0E2FA00206D
:100460009A49888047E000BF9748007800F01F0055
:1004700018B991489549086001E0002001E000BFEB
:10048000012008B99AE011E1FFF751FF33E001F0D4
:10049000A7FA00B992E0FFF775FF2CE000BF8A4889
:1004A000007800F01F00012814D18348007870B153
:1004B0008548007987490978884208DA82480079B6
:1004C000854908448149086003E076E012E0002095
:1004D00004E001E0002001E000BF012000B96DE070
:1004E000FFF725FF07E001F057FB00B966E0FFF7D3
:1004F00049FF00E062E000BF67E07348007800F069
:100500001F0020B1012803D0022854D12DE055E06E
:100510006D48007938B16C480079012803D06A48E9
:100520000079022820D16848407882280BD004DC6A
:10053000012814D0812816D104E0832804D084280F
:1005400011D102E000BF00BF00BF00F00BFD28B1D9
:100550005F485E490860FFF7EAFE2DE003E05C4873
:100560005A49086028E000BF28E0574840788228B0
:100570000FD004DC012818D081281AD108E0832884
:1005800008D0842815D106E08CE087E06DE01EE0FD
:1005900000BF00BF00BF00F04DFD28B14C484B49E3
:1005A0000860FFF7C4FE07E003E0494847490860D8
:1005B00002E000BF02E001E007E000BF802000F0A1
:1005C00030FA00204149888000BF00BF6EE03E48FD
:1005D0000078C00980BB3D48808870B3FFF7C1FE3A
:1005E0003A48808848BB38480078C0F3411010B1C1
:1005F000012835D100E0E1E73348007800F01F0022
:1006000020B1012803D0022828D11AE0D6E72E48CD
:10061000007938B12C480079012803D02A480079A4
:1006200002280DD128484078012808D100F0DAFCD2
:1006300020B1FFF7A7FE12E014E015E000BF00BFF5
:10064000BCE721484078012806D100F0F5FC10B144
:10065000FFF798FE03E000BF00BFAFE7AEE700E0A2
:10066000ACE701E0FFF795FE20E017480078012194
:10067000B1EBD01F02D1FFF75AFE0EE00D48007813
:1006800000F0800048B10B48007800F07F00094975
:1006900008700846007800F08FF807E0002000F0AE
:1006A000CDF903E0802000F0C9F900BF00BF10BD04
:1006B00000000010020000100300001004000010F1
:1006C000080000100C00001020000010180000109E
:1006D0005C000010100000101100001001460A0715
:1006E000D00E01F0800202B1401C70471021FE4A7A
:1006F0001160FE49C1F8100200BFFB4908390968C2
:1007000001F010010029F8D070471022F64B1A6052
:10071000F64AC2F8100200BFF34A083A126802F023
:100720001002002AF8D01022EF4B1A60EF4AC2F8EC
:10073000101200BFEC4A083A126802F01002002AB8
:10074000F8D0704710B504460B461020E649086003
:100750002046FFF7C3FF4FF4A06141EA0040E349A0
:10076000C1F8100200BFE0480838006800F010002F
:100770000028F8D01020DC490860DC48C0F81032AE
:1007800000BFD9480838006800F010000028F8D0F1
:1007900010BD01463020D44A1060D448C0F8101271
:1007A00000BFD1480838006800F020000028F8D0C9
:1007B000CD480C300068704710B5044644F0800006
:1007C0004FF4807242EA0041C948FFF79EFF44F0AF
:1007D00080004FF4807242EA0041C548FFF795FF60
:1007E00010BD0021C04A403211604021BF4AC2F80A
:1007F0004C120121BC4A403211604021BB4AC2F870
:100800004C1200BFB8490839096801F48071002909
:10081000F8D04FF0FF31B44A303211606FF0400130
:10082000B24AC2F83412C911AF4A11600D21121F29
:100830001160B049AC4A783211604FF0FF31AA4ADA
:100840004C321160A84A843211604021121F11609D
:100850004FF0FF31A44A9C321160A34AA8321160C4
:10086000A14AB432116007219F4A8C3211600021E5
:10087000A14A11605160002007E000219F4A42F820
:1008800020109F4A42F82010401C2028F5D37047C2
:1008900000B59C48406820F070509A49486008466E
:1008A000406840F0A05048600846C068964908403B
:1008B0009449C8600846C068944908439149C86093
:1008C0000846006920F4402008610846006940F4A9
:1008D000802008618E48006840F000408C49C4398F
:1008E000C1F8C40012208B49086000BF8948001D70
:1008F000006800F012001228F8D118200121814070
:100900004209920002F1E022C2F8001100BFFFF795
:1009100068FF0020FFF750FF00BD10B504460CB182
:10092000012000E000204FF4807242EA00417A4842
:10093000FFF7EBFE10BD7047704700B577480078B1
:1009400000F0020018B176497348FFF7DEFE00BDE3
:10095000704710B504460CB1012000E000204FF4B0
:10096000807242EA00416F48FFF7CFFE03205E49E4
:100970003C31086000BF5C480838006800F48070B3
:100980000028F8D04FF480705749086010BD10B5AA
:1009900003469878FFF7A2FE044653483C300068AF
:1009A0000121A14008435149C1F844024E4840305A
:1009B00004609888C1F84C0200BF4B4808380068B2
:1009C00000F480700028F8D04FF480704649086029
:1009D00010BD704730B504462046FFF77FFE5249F0
:1009E00041EA004589132846FFF78FFE30BD30B538
:1009F00004462046FFF772FE4B4941EA00454B4949
:100A00002846FFF782FE30BD30B504462046FFF78A
:100A100065FE454941EA004589132846FFF775FE02
:100A200030BD30B504462046FFF758FE3E4941EA46
:100A300000453B492846FFF768FE30BD30B5044607
:100A40002046FFF74BFE384941EA00458913284606
:100A5000FFF75BFE30BD10B5044635492046FFF771
:100A600071FE10BDF0B505460F4605F00F000121DF
:100A700001EB80001C492031086000BF1A48183083
:100A8000046804F400600028F8D0C4F309040026C8
:100A900005E01648D0F8180238603F1D761CE01CAF
:100AA000B6EB900FF5D300200F492031086041F2DA
:100AB0004820284100F0010018B91D492846FFF7D9
:100AC00041FE2046F0BDF0B506460D46144606F040
:100AD0000F00022101EB8000034920310860034828
:100AE000C0F8244200272AE008C2005000C000508D
:100AF0000005D00000000820280000109C00001015
:100B00000000082000C00240CFFFFFCF10000020EF
:100B1000C4C00F40F4CF00500005FE0000000010DC
:100B2000000101000005D800000540000001200080
:100B30000005F2002868FE4908602D1D7F1CE01C9E
:100B4000B7EB900FF6D30020F9490C310860F94952
:100B50003046FFF7F7FD2046F0BD2DE9F043814612
:100B60000C46207BC0F340054846FFF7B7FD8046A2
:100B70000027F14850F8283017E01F46207B00F08E
:100B8000010088B9ED4850F82500381AEC4951F8B1
:100B90002510B0FBF1F6EB4850F825000121B140DB
:100BA0008843E84941F825003B68002BE5D1002641
:100BB00008E0E44850F825100120B040014001B998
:100BC00002E0761C202EF4D300BF202E02D100209C
:100BD000BDE8F083DB4850F825100120B040014308
:100BE000D84840F82510D54850F82500D44951F888
:100BF000251006FB01034FB1207B00F0010028B156
:100C00003B60786840F00400786005E0CA4840F82E
:100C10002830CD4840F82830002001C3207BC0F3A5
:100C20008000217BC1F3400140EA0110E18840EAE5
:100C30004110A18840EA014001C3206801C3A08996
:100C4000C0F30720000201C30DB1A06818600120A5
:100C5000BEE700B503461846FFF740FD012181407D
:100C6000B3486C30016000BD00B503461846FFF77D
:100C700035FD01218140AE487030016000BD30B5C6
:100C800005462846FFF72AFDAF4951F820300BB939
:100C9000002030BDDC68C4F343000A2812D2DFE82C
:100CA00000F00507090B111111110D0F0120F0E7DC
:100CB0000220EEE70320ECE70520EAE70420E8E75E
:100CC0000620E6E74FF6FF70E3E730B50546284615
:100CD000FFF704FD9C4951F8203013B94FF0FF3065
:100CE00030BD9C682046FBE730B505462846FFF737
:100CF000F5FC954951F8203013B94FF0FF3030BD65
:100D0000DC68200CFBE700B59048FFF7EFFC90484B
:100D1000FFF73FFD03468E48FFF73BFD43EA002304
:100D2000184600BD2DE9F04781481C38076807F0D8
:100D30000800E8B108207E49143908608548FFF7AB
:100D4000D5FC8548FFF725FD064606F0100018B1D2
:100D5000FFF747FDFFF708FA06F0080038B106F084
:100D6000040010B1FFF7E7FD01E0FFF7E5FDDCE06F
:100D700007F0010008B1FFF7FBF907F004000028B5
:100D80004ED04FF000097548D0F83082002440E082
:100D9000C84500D13FE00120A04000EA080060B350
:100DA0000120A04040EA090965080120A0406049EF
:100DB0001C31086000BF5E481C38006800F020004D
:100DC0000028F8D05A480838066804F00100A8B98D
:100DD00054B906F0040038B16148006820B1604899
:100DE00001680120884713E05D4850F8250020B1D4
:100DF0005B4850F825100220884708E0584850F812
:100E0000250020B1564850F825100320884700BF20
:100E1000641C202CBCD300BF042045491439086051
:100E200043487430006800F0010028B34048843023
:100E3000066802241BE00120A0403040B0B16508E4
:100E400004F0010048B9464850F8250070B1444804
:100E500050F825100820884708E0414850F8250040
:100E600020B13F4850F8251009208847641C202CE9
:100E7000E1D32F48883006602D487430006800F0B8
:100E8000020028B32A489030066802241BE00120A3
:100E9000A0403040B0B1650804F0010048B93048C6
:100EA00050F8250070B12E4850F825100A208847C8
:100EB00008E02B4850F8250020B1294850F82510AB
:100EC0000B208847641C202CE1D31948943006601D
:100ED00017487430006800F0040028B314489C30B0
:100EE000066802241BE00120A0403040B0B1650834
:100EF00004F0010048B91A4850F8250070B11848AC
:100F000050F825100C20884708E0154850F82500B7
:100F100020B1134850F825100D208847641C202C60
:100F2000E1D30348A030066000BFBDE8F0870000B1
:100F30001CC200500005FA009C000010EC1D0000CF
:100F4000F41D000028000010000008200005F50036
:100F50000002F5000005FE000002FE0000C0005087
:100F6000C81C000035488088B0F5007F38D1334870
:100F7000807890BB3148C078012802D002282ED159
:100F80000AE02E484078812805D12D4800782D4967
:100F900008700120704722E028484078812806D058
:100FA00082280AD083280DD0842817D110E0264843
:100FB0000088244908800120ECE7002021490880AE
:100FC0000120E7E74FF480701E4908800120E1E727
:100FD00004201C4908800120DCE701E000BF00BFBD
:100FE0000020D7E715488088B0F5007F20D113484E
:100FF0008078E8B91148C078012802D0022816D1BB
:101000000AE00E484078012805D10E4800780C49C6
:101010000870012070470AE008484078012805D18F
:1010200008480088084908800120F3E700BF00BF96
:101030000020EFE7002070470020704720000010DC
:10104000340000105C000010300000107549096881
:1010500041F08071734A116000BF7249486800F026
:1010600000410029F9D06F49096821F080716D4A6B
:101070001160F82101EA1021082202EAD01211447D
:10108000694A1180704710B568480078002836D04A
:10109000674800686749098830F911306648008858
:1010A00064490988401AC0F30904B4F5607F04D18B
:1010B00060480088401C5F490880802C04D95D4846
:1010C0000088401C5B4908805A480088C0F309002A
:1010D00058490880002B05DA58480068C01A57495B
:1010E000086004E0554800681844544908605448B2
:1010F000006843431B1403F500439BB201E04FF427
:1011000000435048007808B14FF400434FF6C070D8
:1011100018404D4908604D4801880068401C4B4A02
:101120001060C1F30900D0B9FFF790FF484800886C
:10113000B0F5004F03D100204149086006E0444863
:1011400000883949098848433D4908603B480068A0
:10115000030D002039490860072B00DD072301201B
:101160004FF04021086010BD1CB500F0E4F939488B
:10117000406820F47010374948600846406840F4E1
:10118000101048603448006840F480503249C43937
:10119000C1F8C4003148234908604FF400402A498F
:1011A00008602D48E4300068C0F381000190019888
:1011B00030B1012809D002280BD003280ED000BF7F
:1011C00027480068800800900DE0254800680090DE
:1011D00009E0234800684008009004E020480068C7
:1011E000C008009000BF00BF4FF4FA410098B0FB68
:1011F000F1F0401E4FF0402188610320486101203A
:10120000486000BF012181404209920002F1E022C2
:10121000C2F8001100BFFFF73BFB0120FFF77DFB89
:1012200000BFFEE7004003404A00001048000010E5
:101230004000001044000010460000104C00001058
:10124000380000103400001000C0084050000010AA
:101250003000001000C00240C4C00F40040E200047
:10126000580000102DE9F047F7480068C0F301600E
:1012700003287DD1F4488430006800F0030030B1C9
:10128000012830D0022859D003282BD100E000BF1C
:10129000ED480068C0F30740441C0221EA48883842
:1012A000D0F88800C0F30E00401CA1FB0001E74B02
:1012B0004FF0000CA0FB037901FB039100FB0C1124
:1012C00022466346384600F0E1F90546DE487C30A8
:1012D0000068C0B2441C22460023284600F0D6F91C
:1012E000DB49086056E0D8480068C0F30740441C5A
:1012F0000221D5488838D0F88800C0F30E00401C81
:10130000A1FB0010D34A4FF0000CA1FB027900FBB7
:10131000029001FB0C0122466346384600F0B6F904
:101320000546C9487C300068C0B2441C22460023F0
:10133000284600F0ABF9C64908602BE0C2480068B7
:10134000C0F30740441C0221BF488838D0F8880009
:10135000C0F30E00401CA1FB00124FF4004000231C
:10136000A1FB007902FB009001FB0301224600E093
:1013700011E0384600F08AF90546B3487C30006831
:10138000C0B2441C22460023284600F07FF9B04931
:10139000086000BF30E0AC488430006800F0030013
:1013A00030B1012810D0022819D0032823D100E041
:1013B00000BFA5487C300068C0B2401CA349B1FB07
:1013C000F0F0A349086016E09F487C300068C0B286
:1013D000401CA049B1FBF0F09D4908600BE09A4821
:1013E0007C300068C0B2401C4FF40041B1FBF0F00B
:1013F0009749086000BF00BFBDE8F08720209649EC
:10140000086091488838D0F8A00100F0200030B181
:1014100000BF9148006800F040000028F9D0032088
:1014200089497C310860002087498839C1F8A801C2
:1014300089490C310860012083498431086087485C
:101440008149091F0860AA207F49091D08605520AD
:10145000086001207C4908390860AA207A49091DE2
:101460000860552078498839C1F88C0000BF76485B
:10147000006800F080600028F9D003207249083924
:101480000860AA2070498839C1F88C0055206E493F
:10149000091D086000BF6C48006800F04070B0F1A2
:1014A000407FF8D1232068491C310860AA20664992
:1014B0008839C1F8AC005520634924310860012007
:1014C000614918310860AA205F492431086055201D
:1014D0005D498839C1F8AC0000BF5B482030006826
:1014E00000F480600028F8D00320574918310860C4
:1014F000AA2055498839C1F8AC00552052492431F9
:10150000086000BF50482030006800F44070B0F51B
:10151000407FF7D152484C493C31086000204A498D
:101520008839C1F8C8010846006820F4704040F4CA
:1015300080400860704744480068C0F30160032899
:101540005ED141488430006800F0030030B10128CA
:1015500020D0022839D0032851D100E000BF3A48FA
:101560000068C0F30E00401C410037488838D0F8AE
:101570008800C0F30740401CB1FBF0F033494843FA
:1015800031497C310968C9B2491CB0FBF1F03549D9
:10159000086034E02C480068C0F30E00401C410095
:1015A00029488838D0F88800C0F30740401CB1FBB8
:1015B000F0F02849484324497C310968C9B2491CE4
:1015C000B0FBF1F02749086019E01F480068C0F33C
:1015D0000E00401C41001C488838D0F88800C0F339
:1015E0000740401CB1FBF0F0C10317487C30006895
:1015F000C0B2401CB1FBF0F01A49086000BF3FE0E8
:1016000011488430006800F0030030B1012810D088
:10161000022829D0032832D100E000BF0A487C30DC
:101620000068C0B2401C0949B1FBF0F00D490860E8
:1016300025E005487C300068C0B2401C0549B1FB7C
:10164000F0F0084908601AE088C00F4000093D002A
:1016500054000010001BB700A0C10F40630005003C
:10166000DE8728045800001006480068C0B2401CFD
:101670004FF40041B1FBF0F00349086000BF00BF28
:101680007047000004C10F405800001053EA020CDC
:1016900000F069802DE9F04B4FF00006002B1FBFD2
:1016A000B3FA83F503FA05F424FA05F65E4012BF97
:1016B0001643B2FA82F502FA05F4C5F120051EBF01
:1016C00022FA05FC44EA0C04203556EA044C4FEAA1
:1016D000144418BF641C4FF000084FF000099042FA
:1016E00071EB030C39D3002919BFB1FA81F701FA64
:1016F00007F6B0FA80F700FA07F6C7F120071EBF19
:1017000020FA07FC46EA0C062037B6FBF4FCA7EBF0
:101710000507103F07F01F0BCBF120060CFA0BFB5F
:101720002CFA06F644BFB3460026202FA4BF5E461F
:101730004FF0000B5BEA060C08BF4FF0010B19EBF2
:101740000B09ABFB027C48EB0608C01B06FB02CC76
:101750000BFB03CC71EB0C01C1E70B460246414683
:101760004846BDE8F08B13B54FF000004FF0000184
:10177000AFF30080BDE81C407047704710B52848A3
:10178000007800F01F0010B101283ED13AE0244853
:10179000C078012804D0022807D003282ED118E0F1
:1017A0002048214C206012232AE02049002204E036
:1017B000087808B148880144521C19488078904242
:1017C000F6D1087808B9002010BD174801604B8891
:1017D00016E01749002204E0087808B108780144AF
:1017E000521C0F4880789042F6D1087808B9002042
:1017F000EAE70D4801600068037801E00020E3E7B4
:1018000000BF04E000BF0020DEE70020DCE700BFEF
:1018100005488088984201D9034CA3800120D3E772
:1018200020000010081D0000180000101A1D000004
:10183000881D00002748007800F01F0020B1012813
:1018400006D0022841D116E02348244B18603EE020
:101850002348007860B11F480079224B1B789842DA
:1018600006DA0020204B188018461C4B186001E057
:10187000002070472BE01748007900F08F0101F03D
:10188000800028B101F00F034FF48030984001E050
:101890000120884002461248007810B901F00F007C
:1018A00080B912480068104060B1114800681040CB
:1018B00008B1012000E000200B4B18801846074BB0
:1018C000186001E00020D4E701E00020D1E700BF6C
:1018D0000120CEE7200000100000001018000010CA
:1018E00003000010100000105C0000100400001045
:1018F0000800001070B506463348007800F01F005D
:1019000020B101281DD0022858D11CE02E48408863
:10191000012813D146B1FFF71BF82C48008840F08E
:1019200002002A4908800BE00020FFF711F8274841
:10193000008820F002002549088001E0002070BDE9
:101940003EE00020FBE72048007900F08F0404F01F
:10195000800028B104F00F014FF48030884001E08E
:101960000120A04005461A48007820B304F00F007B
:1019700008B3184800682840E8B113484088C0B947
:1019800046B12046FFF74DF8134800682843124936
:10199000086012E011480068284008B10120CEE735
:1019A0002046FFF74BF80C480068A8430A49086036
:1019B00003E00020C3E70020C1E701E00020BEE70C
:1019C00000BF0120BBE70000200000100000001055
:1019D0000300001004000010080000100C000010AC
:1019E0002DE9F04100266348007800F01F00002830
:1019F0007ED16048807800287BD05F4D7EE068789B
:101A0000022804D0042851D0052870D150E068790C
:101A100058498978884245D1564880785749087096
:101A2000287957490870002403E0002055490855DB
:101A3000641C042CF9D3012414E00120A040524975
:101A40000968084010B12046FEF7D1FF4FF48030FE
:101A5000A0404D490968084018B144F08000FEF7E5
:101A6000C6FF641C102CE8D34FF0011046490860F3
:101A7000002046490860464908600120FEF769FFDA
:101A8000E87900F0400030B14248008840F00100A1
:101A90004049088009E03F48008820F001003D49A6
:101AA000088002E06888054428E020E0EE781EE027
:101AB000E6B9A87800F08F0404F0800028B104F0A3
:101AC0000F014FF48030884001E00120A04007461C
:101AD0002D48006838432C4908602846FEF757FF18
:101AE0002046FEF777FF2046FEF78EFF00BF01E09D
:101AF0003AE008E000BF2878054400BF28780028B5
:101B00007FF47DAF26E000201C490870012414E01A
:101B10000120A0401C490968084010B12046FEF78A
:101B200066FF4FF48030A04017490968084018B19B
:101B300044F08000FEF75BFF641C102CE8D34FF0EC
:101B40000110114908600020104908601049086020
:101B5000FEF7FFFE0748807808490978884202D0DE
:101B60000020BDE8F08101E00020FAE700BF01207D
:101B7000F7E70000200000101A1D0000030000100D
:101B800010000010110000100400001008000010E8
:101B90000C000010000000102DE9F05F0027B8468F
:101BA000BB46B9464248007800F01F00012879D1B1
:101BB0004048007810B90020BDE8F09F4FF0000ABF
:101BC0003D4C6AE06078022804D004280BD0052838
:101BD0005FD11EE0607937490978884202D0608879
:101BE00004445AE055E0A77894F803804FF00009C8
:101BF0002F480079B8420BD12D488078404507D155
:101C00004FF0010A2D4810F807B0014601F807808F
:101C10003FE027480079B8423AD1A07800F08F061B
:101C200006F0800028B106F00F014FF480308840A4
:101C300001E00120B04005461D488078404515D19F
:101C40001F48006828431E4908601E480068A843D2
:101C50001C4908602046FEF79AFE3046FEF7BAFEA1
:101C60003046FEF7D1FE49EA050911E0D8450FD10B
:101C700009EA050060B912480068A84310490860E5
:101C800010480068A8430F4908603046FEF7AFFED1
:101C900000BF00BF2078044400BF2078002891D105
:101CA00002E0FFE7002087E700BF504684E700001E
:101CB00020000010030000101A1D00001100001089
:101CC00004000010080000109F0300000000000046
:101CD000000000007701000000000000000000008C
:101CE00000000000000000000000000000000000F4
:101CF00000000000000000000000000000000000E4
:101D0000000000000000000012010002000000407E
:101D1000C91F024000010102030109026D00020116
:101D200000803209040000000101000009240100C4
:101D300001270001010C2402010101000100000043
:101D40000009240602010103000009240303010322
:101D50000002000904010000010200000904010161
:101D60000101020000072401010101000B2402010E
:101D700001021001007D000905030140000100007F
:101D80000725010000000000040309041C034E00A5
:101D9000580050002000530065006D00690063008A
:101DA0006F006E00640020002A034E0058005000AF
:101DB00020004C00500043003100370078007800CC
:101DC000200053007000650061006B006500720028
:101DD00020001A03440045004D004F003000300041
:101DE000300030003000300030003000800008202B
:101DF0008001082010000000140000002C1E0000CC
:101E0000000000105C00000008010000881E0000B7
:101E10005C0000102403000024010000881E000064
:101E20000000082020020000240100000000000043
:101E300000000000000000000000000000000000A2
:101E40000000000000000000000000000000000092
:101E50000000000000000000000000000001000081
:101E600000000000000000002002082030020820CE
:101E70000000000000000000000000000000000062
:081E800000E1F50500093D0039
:04000005000000CD2A
:00000001FF
